{
  "contractName": "Raiser",
  "abi": [
    {
      "constant": true,
      "inputs": [
        {
          "name": "_interfaceId",
          "type": "bytes4"
        }
      ],
      "name": "supportsInterface",
      "outputs": [
        {
          "name": "",
          "type": "bool"
        }
      ],
      "payable": false,
      "stateMutability": "view",
      "type": "function"
    },
    {
      "constant": true,
      "inputs": [],
      "name": "MAX_HALVING_ERA",
      "outputs": [
        {
          "name": "",
          "type": "uint256"
        }
      ],
      "payable": false,
      "stateMutability": "view",
      "type": "function"
    },
    {
      "constant": true,
      "inputs": [],
      "name": "name",
      "outputs": [
        {
          "name": "",
          "type": "string"
        }
      ],
      "payable": false,
      "stateMutability": "view",
      "type": "function"
    },
    {
      "constant": true,
      "inputs": [
        {
          "name": "_tokenId",
          "type": "uint256"
        }
      ],
      "name": "getApproved",
      "outputs": [
        {
          "name": "",
          "type": "address"
        }
      ],
      "payable": false,
      "stateMutability": "view",
      "type": "function"
    },
    {
      "constant": false,
      "inputs": [
        {
          "name": "_to",
          "type": "address"
        },
        {
          "name": "_tokenId",
          "type": "uint256"
        }
      ],
      "name": "approve",
      "outputs": [],
      "payable": false,
      "stateMutability": "nonpayable",
      "type": "function"
    },
    {
      "constant": true,
      "inputs": [],
      "name": "HALVING_WEI",
      "outputs": [
        {
          "name": "",
          "type": "uint256"
        }
      ],
      "payable": false,
      "stateMutability": "view",
      "type": "function"
    },
    {
      "constant": true,
      "inputs": [],
      "name": "totalSupply",
      "outputs": [
        {
          "name": "",
          "type": "uint256"
        }
      ],
      "payable": false,
      "stateMutability": "view",
      "type": "function"
    },
    {
      "constant": true,
      "inputs": [],
      "name": "InterfaceId_ERC165",
      "outputs": [
        {
          "name": "",
          "type": "bytes4"
        }
      ],
      "payable": false,
      "stateMutability": "view",
      "type": "function"
    },
    {
      "constant": false,
      "inputs": [
        {
          "name": "_from",
          "type": "address"
        },
        {
          "name": "_to",
          "type": "address"
        },
        {
          "name": "_tokenId",
          "type": "uint256"
        }
      ],
      "name": "transferFrom",
      "outputs": [],
      "payable": false,
      "stateMutability": "nonpayable",
      "type": "function"
    },
    {
      "constant": true,
      "inputs": [],
      "name": "rewardEra",
      "outputs": [
        {
          "name": "",
          "type": "uint8"
        }
      ],
      "payable": false,
      "stateMutability": "view",
      "type": "function"
    },
    {
      "constant": true,
      "inputs": [
        {
          "name": "_owner",
          "type": "address"
        },
        {
          "name": "_index",
          "type": "uint256"
        }
      ],
      "name": "tokenOfOwnerByIndex",
      "outputs": [
        {
          "name": "",
          "type": "uint256"
        }
      ],
      "payable": false,
      "stateMutability": "view",
      "type": "function"
    },
    {
      "constant": false,
      "inputs": [
        {
          "name": "_from",
          "type": "address"
        },
        {
          "name": "_to",
          "type": "address"
        },
        {
          "name": "_tokenId",
          "type": "uint256"
        }
      ],
      "name": "safeTransferFrom",
      "outputs": [],
      "payable": false,
      "stateMutability": "nonpayable",
      "type": "function"
    },
    {
      "constant": true,
      "inputs": [
        {
          "name": "_tokenId",
          "type": "uint256"
        }
      ],
      "name": "exists",
      "outputs": [
        {
          "name": "",
          "type": "bool"
        }
      ],
      "payable": false,
      "stateMutability": "view",
      "type": "function"
    },
    {
      "constant": true,
      "inputs": [
        {
          "name": "_index",
          "type": "uint256"
        }
      ],
      "name": "tokenByIndex",
      "outputs": [
        {
          "name": "",
          "type": "uint256"
        }
      ],
      "payable": false,
      "stateMutability": "view",
      "type": "function"
    },
    {
      "constant": true,
      "inputs": [
        {
          "name": "_tokenId",
          "type": "uint256"
        }
      ],
      "name": "ownerOf",
      "outputs": [
        {
          "name": "",
          "type": "address"
        }
      ],
      "payable": false,
      "stateMutability": "view",
      "type": "function"
    },
    {
      "constant": true,
      "inputs": [
        {
          "name": "_owner",
          "type": "address"
        }
      ],
      "name": "balanceOf",
      "outputs": [
        {
          "name": "",
          "type": "uint256"
        }
      ],
      "payable": false,
      "stateMutability": "view",
      "type": "function"
    },
    {
      "constant": false,
      "inputs": [],
      "name": "renounceOwnership",
      "outputs": [],
      "payable": false,
      "stateMutability": "nonpayable",
      "type": "function"
    },
    {
      "constant": true,
      "inputs": [],
      "name": "owner",
      "outputs": [
        {
          "name": "",
          "type": "address"
        }
      ],
      "payable": false,
      "stateMutability": "view",
      "type": "function"
    },
    {
      "constant": true,
      "inputs": [],
      "name": "symbol",
      "outputs": [
        {
          "name": "",
          "type": "string"
        }
      ],
      "payable": false,
      "stateMutability": "view",
      "type": "function"
    },
    {
      "constant": false,
      "inputs": [
        {
          "name": "_to",
          "type": "address"
        },
        {
          "name": "_approved",
          "type": "bool"
        }
      ],
      "name": "setApprovalForAll",
      "outputs": [],
      "payable": false,
      "stateMutability": "nonpayable",
      "type": "function"
    },
    {
      "constant": true,
      "inputs": [],
      "name": "boost",
      "outputs": [
        {
          "name": "",
          "type": "address"
        }
      ],
      "payable": false,
      "stateMutability": "view",
      "type": "function"
    },
    {
      "constant": false,
      "inputs": [
        {
          "name": "_from",
          "type": "address"
        },
        {
          "name": "_to",
          "type": "address"
        },
        {
          "name": "_tokenId",
          "type": "uint256"
        },
        {
          "name": "_data",
          "type": "bytes"
        }
      ],
      "name": "safeTransferFrom",
      "outputs": [],
      "payable": false,
      "stateMutability": "nonpayable",
      "type": "function"
    },
    {
      "constant": true,
      "inputs": [
        {
          "name": "_tokenId",
          "type": "uint256"
        }
      ],
      "name": "tokenURI",
      "outputs": [
        {
          "name": "",
          "type": "string"
        }
      ],
      "payable": false,
      "stateMutability": "view",
      "type": "function"
    },
    {
      "constant": true,
      "inputs": [
        {
          "name": "_owner",
          "type": "address"
        },
        {
          "name": "_operator",
          "type": "address"
        }
      ],
      "name": "isApprovedForAll",
      "outputs": [
        {
          "name": "",
          "type": "bool"
        }
      ],
      "payable": false,
      "stateMutability": "view",
      "type": "function"
    },
    {
      "constant": false,
      "inputs": [
        {
          "name": "_newOwner",
          "type": "address"
        }
      ],
      "name": "transferOwnership",
      "outputs": [],
      "payable": false,
      "stateMutability": "nonpayable",
      "type": "function"
    },
    {
      "inputs": [
        {
          "name": "_boost",
          "type": "address"
        }
      ],
      "payable": false,
      "stateMutability": "nonpayable",
      "type": "constructor"
    },
    {
      "anonymous": false,
      "inputs": [
        {
          "indexed": true,
          "name": "to",
          "type": "address"
        },
        {
          "indexed": false,
          "name": "tokenId",
          "type": "uint256"
        }
      ],
      "name": "Mint",
      "type": "event"
    },
    {
      "anonymous": false,
      "inputs": [
        {
          "indexed": true,
          "name": "previousOwner",
          "type": "address"
        }
      ],
      "name": "OwnershipRenounced",
      "type": "event"
    },
    {
      "anonymous": false,
      "inputs": [
        {
          "indexed": true,
          "name": "previousOwner",
          "type": "address"
        },
        {
          "indexed": true,
          "name": "newOwner",
          "type": "address"
        }
      ],
      "name": "OwnershipTransferred",
      "type": "event"
    },
    {
      "anonymous": false,
      "inputs": [
        {
          "indexed": true,
          "name": "_from",
          "type": "address"
        },
        {
          "indexed": true,
          "name": "_to",
          "type": "address"
        },
        {
          "indexed": true,
          "name": "_tokenId",
          "type": "uint256"
        }
      ],
      "name": "Transfer",
      "type": "event"
    },
    {
      "anonymous": false,
      "inputs": [
        {
          "indexed": true,
          "name": "_owner",
          "type": "address"
        },
        {
          "indexed": true,
          "name": "_approved",
          "type": "address"
        },
        {
          "indexed": true,
          "name": "_tokenId",
          "type": "uint256"
        }
      ],
      "name": "Approval",
      "type": "event"
    },
    {
      "anonymous": false,
      "inputs": [
        {
          "indexed": true,
          "name": "_owner",
          "type": "address"
        },
        {
          "indexed": true,
          "name": "_operator",
          "type": "address"
        },
        {
          "indexed": false,
          "name": "_approved",
          "type": "bool"
        }
      ],
      "name": "ApprovalForAll",
      "type": "event"
    },
    {
      "constant": false,
      "inputs": [
        {
          "name": "_slug",
          "type": "string"
        },
        {
          "name": "_template",
          "type": "address"
        },
        {
          "name": "_bytecode",
          "type": "bytes"
        },
        {
          "name": "_args",
          "type": "bytes"
        }
      ],
      "name": "mint",
      "outputs": [],
      "payable": true,
      "stateMutability": "payable",
      "type": "function"
    },
    {
      "constant": true,
      "inputs": [
        {
          "name": "_slug",
          "type": "string"
        }
      ],
      "name": "toTokenId",
      "outputs": [
        {
          "name": "tokenId",
          "type": "uint256"
        }
      ],
      "payable": false,
      "stateMutability": "pure",
      "type": "function"
    },
    {
      "constant": true,
      "inputs": [
        {
          "name": "_tokenId",
          "type": "uint256"
        }
      ],
      "name": "slugOf",
      "outputs": [
        {
          "name": "slug",
          "type": "string"
        }
      ],
      "payable": false,
      "stateMutability": "view",
      "type": "function"
    },
    {
      "constant": true,
      "inputs": [
        {
          "name": "_tokenId",
          "type": "uint256"
        }
      ],
      "name": "saleOf",
      "outputs": [
        {
          "name": "sale",
          "type": "address"
        }
      ],
      "payable": false,
      "stateMutability": "view",
      "type": "function"
    },
    {
      "constant": true,
      "inputs": [
        {
          "name": "_tokenId",
          "type": "uint256"
        }
      ],
      "name": "claimableBoostsOf",
      "outputs": [
        {
          "name": "boosts",
          "type": "uint256"
        },
        {
          "name": "newRewardEra",
          "type": "uint8"
        },
        {
          "name": "newWeiUntilNextHalving",
          "type": "uint256"
        }
      ],
      "payable": false,
      "stateMutability": "view",
      "type": "function"
    },
    {
      "constant": false,
      "inputs": [
        {
          "name": "_tokenId",
          "type": "uint256"
        }
      ],
      "name": "claimBoostsOf",
      "outputs": [
        {
          "name": "",
          "type": "bool"
        }
      ],
      "payable": false,
      "stateMutability": "nonpayable",
      "type": "function"
    },
    {
      "constant": true,
      "inputs": [
        {
          "name": "_tokenId",
          "type": "uint256"
        }
      ],
      "name": "rewardedBoostsOf",
      "outputs": [
        {
          "name": "boosts",
          "type": "uint256"
        }
      ],
      "payable": false,
      "stateMutability": "view",
      "type": "function"
    },
    {
      "constant": true,
      "inputs": [],
      "name": "claimableBoosts",
      "outputs": [
        {
          "name": "boosts",
          "type": "uint256"
        },
        {
          "name": "newRewardEra",
          "type": "uint8"
        },
        {
          "name": "newWeiUntilNextHalving",
          "type": "uint256"
        }
      ],
      "payable": false,
      "stateMutability": "view",
      "type": "function"
    },
    {
      "constant": false,
      "inputs": [],
      "name": "claimBoosts",
      "outputs": [
        {
          "name": "",
          "type": "bool"
        }
      ],
      "payable": false,
      "stateMutability": "nonpayable",
      "type": "function"
    },
    {
      "constant": true,
      "inputs": [],
      "name": "rewardedBoosts",
      "outputs": [
        {
          "name": "boosts",
          "type": "uint256"
        }
      ],
      "payable": false,
      "stateMutability": "view",
      "type": "function"
    },
    {
      "constant": true,
      "inputs": [],
      "name": "boostsUntilNextHalving",
      "outputs": [
        {
          "name": "",
          "type": "uint256"
        }
      ],
      "payable": false,
      "stateMutability": "view",
      "type": "function"
    }
  ],
  "bytecode": "0x6080604052600d805460a060020a60ff02191690556a115eec47f6cf7e35000000600e553480156200003057600080fd5b506040516020806200236983398101604081815291518282018352600682527f52616973657200000000000000000000000000000000000000000000000000006020808401919091528351808501909452600384527f52414900000000000000000000000000000000000000000000000000000000009084015291620000df7f01ffc9a70000000000000000000000000000000000000000000000000000000064010000000062000211810204565b620001137f80ac58cd0000000000000000000000000000000000000000000000000000000064010000000062000211810204565b620001477f4f558e790000000000000000000000000000000000000000000000000000000064010000000062000211810204565b81516200015c9060059060208501906200027e565b508051620001729060069060208401906200027e565b50620001a77f780e9d630000000000000000000000000000000000000000000000000000000064010000000062000211810204565b620001db7f5b5e139f0000000000000000000000000000000000000000000000000000000064010000000062000211810204565b5050600c805433600160a060020a031991821617909155600d8054909116600160a060020a039290921691909117905562000323565b7fffffffff0000000000000000000000000000000000000000000000000000000080821614156200024157600080fd5b7fffffffff00000000000000000000000000000000000000000000000000000000166000908152602081905260409020805460ff19166001179055565b828054600181600116156101000203166002900490600052602060002090601f016020900481019282601f10620002c157805160ff1916838001178555620002f1565b82800160010185558215620002f1579182015b82811115620002f1578251825591602001919060010190620002d4565b50620002ff92915062000303565b5090565b6200032091905b80821115620002ff57600081556001016200030a565b90565b61203680620003336000396000f3006080604052600436106101a85763ffffffff60e060020a60003504166301ffc9a781146101ad57806303948e47146101e357806306fdde031461020a578063081812fc14610294578063095ea7b3146102c85780630c972b09146102ee57806311bae04f1461030657806318076e4f1461031b57806318160ddd1461033057806319fa8f50146103455780632213719b1461037757806323b872dd146103af57806326eed3b5146103d95780632d38bf7a146104325780632f745c591461045d57806342842e0e146104815780634f558e79146104ab5780634f6ccce7146104c3578063550a778b146104db57806356935e8e146104f357806361db2445146105085780636352211e1461052057806370a0823114610538578063715018a61461055957806373edf1891461056e57806385449c09146105835780638da5cb5b1461059857806395d89b41146105ad578063a22cb465146105c2578063a66f42c0146105e8578063aeef6719146105fd578063b88d4fde146106d4578063c87b56dd14610743578063dfdab20d1461075b578063e985e9c514610773578063f2fde38b1461079a575b600080fd5b3480156101b957600080fd5b506101cf600160e060020a0319600435166107bb565b604080519115158252519081900360200190f35b3480156101ef57600080fd5b506101f86107da565b60408051918252519081900360200190f35b34801561021657600080fd5b5061021f6107df565b6040805160208082528351818301528351919283929083019185019080838360005b83811015610259578181015183820152602001610241565b50505050905090810190601f1680156102865780820380516001836020036101000a031916815260200191505b509250505060405180910390f35b3480156102a057600080fd5b506102ac600435610876565b60408051600160a060020a039092168252519081900360200190f35b3480156102d457600080fd5b506102ec600160a060020a0360043516602435610891565b005b3480156102fa57600080fd5b506101f860043561093a565b34801561031257600080fd5b506101f8610957565b34801561032757600080fd5b506101f8610971565b34801561033c57600080fd5b506101f8610980565b34801561035157600080fd5b5061035a610986565b60408051600160e060020a03199092168252519081900360200190f35b34801561038357600080fd5b5061038f6004356109aa565b6040805193845260ff909216602084015282820152519081900360600190f35b3480156103bb57600080fd5b506102ec600160a060020a0360043581169060243516604435610c5b565b3480156103e557600080fd5b506040805160206004803580820135601f81018490048402850184019095528484526101f8943694929360249392840191908190840183828082843750949750610cfe9650505050505050565b34801561043e57600080fd5b50610447610e83565b6040805160ff9092168252519081900360200190f35b34801561046957600080fd5b506101f8600160a060020a0360043516602435610ea4565b34801561048d57600080fd5b506102ec600160a060020a0360043581169060243516604435610ef2565b3480156104b757600080fd5b506101cf600435610f13565b3480156104cf57600080fd5b506101f8600435610f30565b3480156104e757600080fd5b506102ac600435610f65565b3480156104ff57600080fd5b506101f8610f80565b34801561051457600080fd5b506101cf600435610fca565b34801561052c57600080fd5b506102ac6004356110e8565b34801561054457600080fd5b506101f8600160a060020a036004351661110c565b34801561056557600080fd5b506102ec61113f565b34801561057a57600080fd5b5061038f6111a0565b34801561058f57600080fd5b506101cf611202565b3480156105a457600080fd5b506102ac61123f565b3480156105b957600080fd5b5061021f61124e565b3480156105ce57600080fd5b506102ec600160a060020a036004351660243515156112af565b3480156105f457600080fd5b506102ac611333565b6040805160206004803580820135601f81018490048402850184019095528484526102ec94369492936024939284019190819084018382808284375050604080516020601f818a01358b0180359182018390048302840183018552818452989b600160a060020a038b35169b909a90999401975091955091820193509150819084018382808284375050604080516020601f89358b018035918201839004830284018301909452808352979a9998810197919650918201945092508291508401838280828437509497506113429650505050505050565b3480156106e057600080fd5b50604080516020601f6064356004818101359283018490048402850184019095528184526102ec94600160a060020a0381358116956024803590921695604435953695608494019181908401838280828437509497506116909650505050505050565b34801561074f57600080fd5b5061021f6004356116b8565b34801561076757600080fd5b5061021f60043561176d565b34801561077f57600080fd5b506101cf600160a060020a03600435811690602435166117d7565b3480156107a657600080fd5b506102ec600160a060020a0360043516611805565b600160e060020a03191660009081526020819052604090205460ff1690565b601481565b60058054604080516020601f600260001961010060018816150201909516949094049384018190048102820181019092528281526060939092909183018282801561086b5780601f106108405761010080835404028352916020019161086b565b820191906000526020600020905b81548152906001019060200180831161084e57829003601f168201915b505050505090505b90565b600090815260026020526040902054600160a060020a031690565b600061089c826110e8565b9050600160a060020a0383811690821614156108b757600080fd5b33600160a060020a03821614806108d357506108d381336117d7565b15156108de57600080fd5b6000828152600260205260408082208054600160a060020a031916600160a060020a0387811691821790925591518593918516917f8c5be1e5ebec7d5bd14f71427d1e84f3dd0314c0f7b2291e5b200ac8c7c3b92591a4505050565b600090815260116020908152604080832033845290915290205490565b600080610965600e54611828565b505090508091505b5090565b6a115eec47f6cf7e3500000081565b60095490565b7f01ffc9a70000000000000000000000000000000000000000000000000000000081565b60008181526011602090815260408083203384529091528120548190819081908190811015610a0257600d54600e54600096507401000000000000000000000000000000000000000090910460ff1694509250610c52565b6000868152600f6020526040902054600160a060020a03169150811515610a2857600080fd5b81600160a060020a031663bef4876b6040518163ffffffff1660e060020a028152600401602060405180830381600087803b158015610a6657600080fd5b505af1158015610a7a573d6000803e3d6000fd5b505050506040513d6020811015610a9057600080fd5b50511515610a9d57600080fd5b604080517fcf7c2b310000000000000000000000000000000000000000000000000000000081523360048201529051600160a060020a0384169163cf7c2b319160248083019260209291908290030181600087803b158015610afe57600080fd5b505af1158015610b12573d6000803e3d6000fd5b505050506040513d6020811015610b2857600080fd5b5051604080517f8da5cb5b00000000000000000000000000000000000000000000000000000000815290519192503391600160a060020a03851691638da5cb5b9160048083019260209291908290030181600087803b158015610b8a57600080fd5b505af1158015610b9e573d6000803e3d6000fd5b505050506040513d6020811015610bb457600080fd5b5051600160a060020a03161415610c4257610c3f82600160a060020a0316634042b66f6040518163ffffffff1660e060020a028152600401602060405180830381600087803b158015610c0657600080fd5b505af1158015610c1a573d6000803e3d6000fd5b505050506040513d6020811015610c3057600080fd5b5051829063ffffffff61193216565b90505b610c4b81611828565b9450945094505b50509193909250565b610c65338261193f565b1515610c7057600080fd5b600160a060020a0383161515610c8557600080fd5b600160a060020a0382161515610c9a57600080fd5b610ca4838261199e565b610cae8382611a02565b610cb88282611b09565b8082600160a060020a031684600160a060020a03167fddf252ad1be2c89b69c2b068fc378daa952ba7f163c4a11628f55a4df523b3ef60405160405180910390a4505050565b6000606060008084925060008351111515610d7a57604080517f08c379a000000000000000000000000000000000000000000000000000000000815260206004820152601060248201527f537472696e6720697320656d7074792e00000000000000000000000000000000604482015290519081900360640190fd5b600091505b610d8b83516020611b52565b821015610e77578282815181101515610da057fe5b90602001015160f860020a900460f860020a0260f860020a9004905080606111158015610dce5750607a8111155b80610dd9575080602d145b1515610e6c57604080517f08c379a000000000000000000000000000000000000000000000000000000000815260206004820152603860248201527f537472696e67206d75737420636f6e7461696e206f6e6c79206c6f776572636160448201527f736520616c70686162657473206f722068797068656e732e0000000000000000606482015290519081900360840190fd5b600190910190610d7f565b50506020015192915050565b600d5474010000000000000000000000000000000000000000900460ff1681565b6000610eaf8361110c565b8210610eba57600080fd5b600160a060020a0383166000908152600760205260409020805483908110610ede57fe5b906000526020600020015490505b92915050565b610f0e8383836020604051908101604052806000815250611690565b505050565b600090815260016020526040902054600160a060020a0316151590565b6000610f3a610980565b8210610f4557600080fd5b6009805483908110610f5357fe5b90600052602060002001549050919050565b6000908152600f6020526040902054600160a060020a031690565b600080805b610f8d610980565b821015610fc557610f9d82610f30565b9050610fb8610fab8261093a565b849063ffffffff61193216565b9250600190910190610f85565b505090565b600080600080610fd9856109aa565b600d805474ff000000000000000000000000000000000000000019167401000000000000000000000000000000000000000060ff851602179055600e8190559194509250905060008311156110c257600d54604080517f40c10f19000000000000000000000000000000000000000000000000000000008152336004820152602481018690529051600160a060020a03909216916340c10f19916044808201926020929091908290030181600087803b15801561109557600080fd5b505af11580156110a9573d6000803e3d6000fd5b505050506040513d60208110156110bf57600080fd5b50505b505060009283526011602090815260408085203386529091529092209190915550600190565b600081815260016020526040812054600160a060020a0316801515610eec57600080fd5b6000600160a060020a038216151561112357600080fd5b50600160a060020a031660009081526003602052604090205490565b600c54600160a060020a0316331461115657600080fd5b600c54604051600160a060020a03909116907ff8df31144d9c2f0f6b59d69b8b98abd5459d07f2742c4df920b25aae33c6482090600090a2600c8054600160a060020a0319169055565b6000808080808080805b6111b2610980565b8510156111f8576111c285610f30565b93506111cd846109aa565b919450925090506111e4888463ffffffff61193216565b9750909550935060019092019184846111aa565b5050505050909192565b600080805b61120f610980565b8210156112365761121f82610f30565b905061122a81610fca565b50600190910190611207565b60019250505090565b600c54600160a060020a031681565b60068054604080516020601f600260001961010060018816150201909516949094049384018190048102820181019092528281526060939092909183018282801561086b5780601f106108405761010080835404028352916020019161086b565b600160a060020a0382163314156112c557600080fd5b336000818152600460209081526040808320600160a060020a03871680855290835292819020805460ff1916861515908117909155815190815290519293927f17307eab39ab6107e8899845ad3d59bd9653f200f220920489ca2b5937696c31929181900390910190a35050565b600d54600160a060020a031681565b604080517f01ffc9a700000000000000000000000000000000000000000000000000000000808252600482015290516000918291600160a060020a038716916301ffc9a791602480830192602092919082900301818787803b1580156113a757600080fd5b505af11580156113bb573d6000803e3d6000fd5b505050506040513d60208110156113d157600080fd5b505115156113de57600080fd5b604080517f01ffc9a70000000000000000000000000000000000000000000000000000000081527fd48445ff0000000000000000000000000000000000000000000000000000000060048201529051600160a060020a038716916301ffc9a79160248083019260209291908290030181600087803b15801561145f57600080fd5b505af1158015611473573d6000803e3d6000fd5b505050506040513d602081101561148957600080fd5b5051151561149657600080fd5b61149f86610cfe565b6000818152600f6020526040902054909250600160a060020a0316156114c457600080fd5b84600160a060020a0316636535b4a53486866040518463ffffffff1660e060020a028152600401808060200180602001838103835285818151815260200191508051906020019080838360005b83811015611529578181015183820152602001611511565b50505050905090810190601f1680156115565780820380516001836020036101000a031916815260200191505b50838103825284518152845160209182019186019080838360005b83811015611589578181015183820152602001611571565b50505050905090810190601f1680156115b65780820380516001836020036101000a031916815260200191505b509450505050506020604051808303818588803b1580156115d657600080fd5b505af11580156115ea573d6000803e3d6000fd5b50505050506040513d602081101561160157600080fd5b50516000838152600f602090815260408083208054600160a060020a031916600160a060020a038616179055601082529091208851929350611647929091890190611f56565b506116523383611b6a565b60408051838152905133917f0f6798a560793a54c3bcfe86a93cde1e73087d944c0ea20544137d4121396885919081900360200190a2505050505050565b61169b848484610c5b565b6116a784848484611bb9565b15156116b257600080fd5b50505050565b60606116c382610f13565b15156116ce57600080fd5b6000828152600b602090815260409182902080548351601f6002600019610100600186161502019093169290920491820184900484028101840190945280845290918301828280156117615780601f1061173657610100808354040283529160200191611761565b820191906000526020600020905b81548152906001019060200180831161174457829003601f168201915b50505050509050919050565b60008181526010602090815260409182902080548351601f60026000196101006001861615020190931692909204918201849004840281018401909452808452606093928301828280156117615780601f1061173657610100808354040283529160200191611761565b600160a060020a03918216600090815260046020908152604080832093909416825291909152205460ff1690565b600c54600160a060020a0316331461181c57600080fd5b61182581611d26565b50565b60008060008060006014600d60149054906101000a900460ff1660ff16111561187a57600d54600e54600096507401000000000000000000000000000000000000000090910460ff1694509250610c52565b85915060009450600d60149054906101000a900460ff169350600e5492505b6000821115610c52576118ae82600e54611b52565b90506118eb6118de6118ce60ff87166014036103e863ffffffff611d9716565b839060020a63ffffffff611dac16565b869063ffffffff61193216565b94506118fd828263ffffffff611dd516565b915061190f838263ffffffff611dd516565b925082151561192d576a115eec47f6cf7e3500000092506001840193505b611899565b81810182811015610eec57fe5b60008061194b836110e8565b905080600160a060020a031684600160a060020a03161480611986575083600160a060020a031661197b84610876565b600160a060020a0316145b80611996575061199681856117d7565b949350505050565b81600160a060020a03166119b1826110e8565b600160a060020a0316146119c457600080fd5b600081815260026020526040902054600160a060020a0316156119fe5760008181526002602052604090208054600160a060020a03191690555b5050565b6000806000611a118585611de7565b600084815260086020908152604080832054600160a060020a0389168452600790925290912054909350611a4c90600163ffffffff611dd516565b600160a060020a038616600090815260076020526040902080549193509083908110611a7457fe5b90600052602060002001549050806007600087600160a060020a0316600160a060020a0316815260200190815260200160002084815481101515611ab457fe5b6000918252602080832090910192909255600160a060020a0387168152600790915260409020805490611aeb906000198301611fd0565b50600093845260086020526040808520859055908452909220555050565b6000611b158383611e70565b50600160a060020a039091166000908152600760209081526040808320805460018101825590845282842081018590559383526008909152902055565b6000818310611b615781611b63565b825b9392505050565b611b748282611ef3565b600980546000838152600a60205260408120829055600182018355919091527f6e1540171b6c0c960b71a7020d9f60077f6af931a8bbf590da0223dacf75c7af015550565b600080611bce85600160a060020a0316611f4e565b1515611bdd5760019150611d1d565b6040517f150b7a020000000000000000000000000000000000000000000000000000000081523360048201818152600160a060020a03898116602485015260448401889052608060648501908152875160848601528751918a169463150b7a0294938c938b938b93909160a490910190602085019080838360005b83811015611c70578181015183820152602001611c58565b50505050905090810190601f168015611c9d5780820380516001836020036101000a031916815260200191505b5095505050505050602060405180830381600087803b158015611cbf57600080fd5b505af1158015611cd3573d6000803e3d6000fd5b505050506040513d6020811015611ce957600080fd5b5051600160e060020a031981167f150b7a020000000000000000000000000000000000000000000000000000000014925090505b50949350505050565b600160a060020a0381161515611d3b57600080fd5b600c54604051600160a060020a038084169216907f8be0079c531659141344cd1fd0a4f28419497f9722a3daafe3b4186f6b6457e090600090a3600c8054600160a060020a031916600160a060020a0392909216919091179055565b60008183811515611da457fe5b049392505050565b6000821515611dbd57506000610eec565b50818102818382811515611dcd57fe5b0414610eec57fe5b600082821115611de157fe5b50900390565b81600160a060020a0316611dfa826110e8565b600160a060020a031614611e0d57600080fd5b600160a060020a038216600090815260036020526040902054611e3790600163ffffffff611dd516565b600160a060020a039092166000908152600360209081526040808320949094559181526001909152208054600160a060020a0319169055565b600081815260016020526040902054600160a060020a031615611e9257600080fd5b60008181526001602081815260408084208054600160a060020a031916600160a060020a0388169081179091558452600390915290912054611ed391611932565b600160a060020a0390921660009081526003602052604090209190915550565b600160a060020a0382161515611f0857600080fd5b611f128282611b09565b6040518190600160a060020a038416906000907fddf252ad1be2c89b69c2b068fc378daa952ba7f163c4a11628f55a4df523b3ef908290a45050565b6000903b1190565b828054600181600116156101000203166002900490600052602060002090601f016020900481019282601f10611f9757805160ff1916838001178555611fc4565b82800160010185558215611fc4579182015b82811115611fc4578251825591602001919060010190611fa9565b5061096d929150611ff0565b815481835581811115610f0e57600083815260209020610f0e9181019083015b61087391905b8082111561096d5760008155600101611ff65600a165627a7a72305820de78fd785cac66cbcd640bcdbdaa906514e29564b24d25d8fcbc2223f41c7b1d0029",
  "source": "pragma solidity ^0.4.24;\n\nimport \"zeppelin-solidity/contracts/token/ERC721/ERC721Token.sol\";\nimport \"zeppelin-solidity/contracts/token/ERC20/ERC20.sol\";\nimport \"zeppelin-solidity/contracts/ownership/Ownable.sol\";\nimport \"./Boost.sol\";\nimport \"./sale/Sale.sol\";\nimport \"./template/sale/SaleTemplate.sol\";\n\ncontract Raiser is ERC721Token(\"Raiser\", \"RAI\"), Ownable {\n    using SafeMath for uint256;\n\n    event Mint(address indexed to, uint256 tokenId);\n\n    uint256 public constant HALVING_WEI = 21000000 * (10 ** 18);\n    uint256 public constant MAX_HALVING_ERA = 20;\n\n    Boost public boost;\n    uint8 public rewardEra = 0;\n\n    uint256 weiUntilNextHalving = HALVING_WEI;\n    mapping(uint256 => Sale) saleOfTokenId;\n    mapping(uint256 => string) slugOfTokenId;\n    mapping(uint256 => mapping(address => uint256)) rewardedBoostsOfSomeoneOfTokenId;\n\n    constructor(Boost _boost) public {\n        boost = _boost;\n    }\n\n    function mint(string _slug, SaleTemplate _template, bytes _bytecode, bytes _args) public payable {\n        // InterfaceId_ERC165\n        require(_template.supportsInterface(0x01ffc9a7));\n        // InterfaceId_Template\n        require(_template.supportsInterface(0xd48445ff));\n\n        uint256 tokenId = toTokenId(_slug);\n        require(address(saleOfTokenId[tokenId]) == address(0));\n\n        Sale sale = Sale(_template.instantiate.value(msg.value)(_bytecode, _args));\n        saleOfTokenId[tokenId] = sale;\n        slugOfTokenId[tokenId] = _slug;\n\n        _mint(msg.sender, tokenId);\n        emit Mint(msg.sender, tokenId);\n    }\n\n    function toTokenId(string _slug) public pure returns (uint256 tokenId) {\n        bytes memory chars = bytes(_slug);\n        require(chars.length > 0, \"String is empty.\");\n        for (uint i = 0; i < _min(chars.length, 32); i++) {\n            uint c = uint(chars[i]);\n            require(0x61 <= c && c <= 0x7a || c == 0x2d, \"String must contain only lowercase alphabets or hyphens.\");\n        }\n        assembly {\n            tokenId := mload(add(chars, 32))\n        }\n    }\n\n    function slugOf(uint256 _tokenId) public view returns (string slug) {\n        return slugOfTokenId[_tokenId];\n    }\n\n    function saleOf(uint256 _tokenId) public view returns (Sale sale) {\n        return saleOfTokenId[_tokenId];\n    }\n\n    function claimableBoostsOf(uint256 _tokenId) public view returns (uint256 boosts, uint8 newRewardEra, uint256 newWeiUntilNextHalving) {\n        if (rewardedBoostsOfSomeoneOfTokenId[_tokenId][msg.sender] > 0) {\n            return (0, rewardEra, weiUntilNextHalving);\n        }\n\n        Sale sale = saleOfTokenId[_tokenId];\n        require(address(sale) != address(0));\n        require(sale.finished());\n\n        uint256 weiAmount = sale.paymentOf(msg.sender);\n        if (sale.owner() == msg.sender) {\n            weiAmount = weiAmount.add(sale.weiRaised());\n        }\n        return _weiToBoosts(weiAmount);\n    }\n\n    function claimBoostsOf(uint256 _tokenId) public returns (bool) {\n        (uint256 boosts, uint8 newRewardEra, uint256 newWeiUntilNextHalving) = claimableBoostsOf(_tokenId);\n        rewardEra = newRewardEra;\n        weiUntilNextHalving = newWeiUntilNextHalving;\n        if (boosts > 0) {\n            boost.mint(msg.sender, boosts);\n        }\n        rewardedBoostsOfSomeoneOfTokenId[_tokenId][msg.sender] = boosts;\n        return true;\n    }\n\n    function rewardedBoostsOf(uint256 _tokenId) public view returns (uint256 boosts) {\n        return rewardedBoostsOfSomeoneOfTokenId[_tokenId][msg.sender];\n    }\n\n    function claimableBoosts() public view returns (uint256 boosts, uint8 newRewardEra, uint256 newWeiUntilNextHalving) {\n        for (uint i = 0; i < totalSupply(); i++) {\n            uint256 tokenId = tokenByIndex(i);\n            (uint256 b, uint8 r, uint256 w) = claimableBoostsOf(tokenId);\n            boosts = boosts.add(b);\n            newRewardEra = r;\n            newWeiUntilNextHalving = w;\n        }\n    }\n\n    function claimBoosts() public returns (bool) {\n        for (uint i = 0; i < totalSupply(); i++) {\n            uint256 tokenId = tokenByIndex(i);\n            claimBoostsOf(tokenId);\n        }\n        return true;\n    }\n\n    function rewardedBoosts() public view returns (uint256 boosts) {\n        for (uint i = 0; i < totalSupply(); i++) {\n            uint256 tokenId = tokenByIndex(i);\n            boosts = boosts.add(rewardedBoostsOf(tokenId));\n        }\n    }\n\n    function boostsUntilNextHalving() public view returns (uint256) {\n        (uint256 boosts,,) = _weiToBoosts(weiUntilNextHalving);\n        return boosts;\n    }\n\n    function _weiToBoosts(uint256 _weiAmount) private view returns (uint256 boosts, uint8 newRewardEra, uint256 newWeiUntilNextHalving) {\n        if (rewardEra > MAX_HALVING_ERA) {\n            return (0, rewardEra, weiUntilNextHalving);\n        }\n        uint256 amount = _weiAmount;\n        boosts = 0;\n        newRewardEra = rewardEra;\n        newWeiUntilNextHalving = weiUntilNextHalving;\n        while (amount > 0) {\n            uint256 a = _min(amount, weiUntilNextHalving);\n            boosts = boosts.add(a.mul(2 ** (MAX_HALVING_ERA - newRewardEra).div(1000)));\n            amount = amount.sub(a);\n            newWeiUntilNextHalving = newWeiUntilNextHalving.sub(a);\n            if (newWeiUntilNextHalving == 0) {\n                newWeiUntilNextHalving = HALVING_WEI;\n                newRewardEra += 1;\n            }\n        }\n    }\n\n    function _min(uint256 _a, uint256 _b) private pure returns (uint256) {\n        return _a < _b ? _a : _b;\n    }\n}\n",
  "sourcePath": "/Users/yoonjae/SolidityProjects/tokenboost-solidity/contracts/Raiser.sol",
  "compiler": {
    "name": "solc",
    "version": "0.4.24+commit.e67f0147.Emscripten.clang"
  },
  "schemaVersion": "2.0.1",
  "updatedAt": "2018-10-07T12:33:14.854Z"
}