{
  "contractName": "Strategy",
  "abi": [
    {
      "constant": true,
      "inputs": [
        {
          "name": "_interfaceId",
          "type": "bytes4"
        }
      ],
      "name": "supportsInterface",
      "outputs": [
        {
          "name": "",
          "type": "bool"
        }
      ],
      "payable": false,
      "stateMutability": "view",
      "type": "function"
    },
    {
      "constant": true,
      "inputs": [],
      "name": "activated",
      "outputs": [
        {
          "name": "",
          "type": "bool"
        }
      ],
      "payable": false,
      "stateMutability": "view",
      "type": "function"
    },
    {
      "constant": true,
      "inputs": [],
      "name": "InterfaceId_ERC165",
      "outputs": [
        {
          "name": "",
          "type": "bytes4"
        }
      ],
      "payable": false,
      "stateMutability": "view",
      "type": "function"
    },
    {
      "constant": true,
      "inputs": [],
      "name": "InterfaceId_Strategy",
      "outputs": [
        {
          "name": "",
          "type": "bytes4"
        }
      ],
      "payable": false,
      "stateMutability": "view",
      "type": "function"
    },
    {
      "constant": true,
      "inputs": [],
      "name": "template",
      "outputs": [
        {
          "name": "",
          "type": "address"
        }
      ],
      "payable": false,
      "stateMutability": "view",
      "type": "function"
    },
    {
      "constant": false,
      "inputs": [],
      "name": "renounceOwnership",
      "outputs": [],
      "payable": false,
      "stateMutability": "nonpayable",
      "type": "function"
    },
    {
      "constant": true,
      "inputs": [],
      "name": "owner",
      "outputs": [
        {
          "name": "",
          "type": "address"
        }
      ],
      "payable": false,
      "stateMutability": "view",
      "type": "function"
    },
    {
      "constant": false,
      "inputs": [
        {
          "name": "_newOwner",
          "type": "address"
        }
      ],
      "name": "transferOwnership",
      "outputs": [],
      "payable": false,
      "stateMutability": "nonpayable",
      "type": "function"
    },
    {
      "constant": true,
      "inputs": [],
      "name": "InterfaceId_Contract",
      "outputs": [
        {
          "name": "",
          "type": "bytes4"
        }
      ],
      "payable": false,
      "stateMutability": "view",
      "type": "function"
    },
    {
      "inputs": [
        {
          "name": "_owner",
          "type": "address"
        }
      ],
      "payable": false,
      "stateMutability": "nonpayable",
      "type": "constructor"
    },
    {
      "anonymous": false,
      "inputs": [
        {
          "indexed": true,
          "name": "previousOwner",
          "type": "address"
        }
      ],
      "name": "OwnershipRenounced",
      "type": "event"
    },
    {
      "anonymous": false,
      "inputs": [
        {
          "indexed": true,
          "name": "previousOwner",
          "type": "address"
        },
        {
          "indexed": true,
          "name": "newOwner",
          "type": "address"
        }
      ],
      "name": "OwnershipTransferred",
      "type": "event"
    },
    {
      "constant": false,
      "inputs": [],
      "name": "activate",
      "outputs": [
        {
          "name": "",
          "type": "bool"
        }
      ],
      "payable": false,
      "stateMutability": "nonpayable",
      "type": "function"
    }
  ],
  "bytecode": "0x608060405234801561001057600080fd5b506040516020806105fb833981016040525160008054600160a060020a03191633179055806100677f01ffc9a7000000000000000000000000000000000000000000000000000000006401000000006100fb810204565b6002805433600160a060020a03199182161790915560008054909116600160a060020a0383161790556100c27f6125ede5000000000000000000000000000000000000000000000000000000006401000000006100fb810204565b506100f57f6e301925000000000000000000000000000000000000000000000000000000006401000000006100fb810204565b5061016a565b7fffffffff00000000000000000000000000000000000000000000000000000000808216141561012a57600080fd5b7fffffffff00000000000000000000000000000000000000000000000000000000166000908152600160208190526040909120805460ff19169091179055565b610482806101796000396000f3006080604052600436106100a35763ffffffff7c010000000000000000000000000000000000000000000000000000000060003504166301ffc9a781146100a85780630f15f4c0146100f3578063186601ca1461010857806319fa8f501461011d57806364b630d8146101645780636f2ddd9314610179578063715018a6146101aa5780638da5cb5b146101c1578063f2fde38b146101d6578063fbf964eb146101f7575b600080fd5b3480156100b457600080fd5b506100df7bffffffffffffffffffffffffffffffffffffffffffffffffffffffff196004351661020c565b604080519115158252519081900360200190f35b3480156100ff57600080fd5b506100df610240565b34801561011457600080fd5b506100df610265565b34801561012957600080fd5b50610132610286565b604080517bffffffffffffffffffffffffffffffffffffffffffffffffffffffff199092168252519081900360200190f35b34801561017057600080fd5b506101326102aa565b34801561018557600080fd5b5061018e6102ce565b60408051600160a060020a039092168252519081900360200190f35b3480156101b657600080fd5b506101bf6102dd565b005b3480156101cd57600080fd5b5061018e610349565b3480156101e257600080fd5b506101bf600160a060020a0360043516610358565b34801561020357600080fd5b5061013261037b565b7bffffffffffffffffffffffffffffffffffffffffffffffffffffffff191660009081526001602052604090205460ff1690565b60008054600160a060020a0316331461025857600080fd5b61026061039f565b905090565b60025474010000000000000000000000000000000000000000900460ff1681565b7f01ffc9a70000000000000000000000000000000000000000000000000000000081565b7f6e3019250000000000000000000000000000000000000000000000000000000081565b600254600160a060020a031681565b600054600160a060020a031633146102f457600080fd5b60008054604051600160a060020a03909116917ff8df31144d9c2f0f6b59d69b8b98abd5459d07f2742c4df920b25aae33c6482091a26000805473ffffffffffffffffffffffffffffffffffffffff19169055565b600054600160a060020a031681565b600054600160a060020a0316331461036f57600080fd5b610378816103d9565b50565b7f6125ede50000000000000000000000000000000000000000000000000000000081565b6002805474ff0000000000000000000000000000000000000000191674010000000000000000000000000000000000000000179055600190565b600160a060020a03811615156103ee57600080fd5b60008054604051600160a060020a03808516939216917f8be0079c531659141344cd1fd0a4f28419497f9722a3daafe3b4186f6b6457e091a36000805473ffffffffffffffffffffffffffffffffffffffff1916600160a060020a03929092169190911790555600a165627a7a72305820ce226bc460d4342d8dd90f93eba9ed6bf1b937ed00a5769f74c36c37a9e6a9810029",
  "source": "pragma solidity ^0.4.24;\n\nimport \"../Contract.sol\";\nimport \"../Activatable.sol\";\n\ncontract Strategy is Contract, Activatable {\n    /**\n     * @notice this.owner.selector ^ this.renounceOwnership.selector ^ this.transferOwnership.selector\n        ^ this.template.selector ^ this.activate.selector\n     */\n    bytes4 public constant InterfaceId_Strategy = 0x6e301925;\n\n    constructor(address _owner) public Contract(_owner) {\n        _registerInterface(InterfaceId_Strategy);\n    }\n\n    function activate() onlyOwner public returns (bool) {\n        return super.activate();\n    }\n}\n",
  "sourcePath": "/Users/yoonjae/SolidityProjects/tokenboost-solidity/contracts/strategy/Strategy.sol",
  "compiler": {
    "name": "solc",
    "version": "0.4.24+commit.e67f0147.Emscripten.clang"
  },
  "schemaVersion": "2.0.1",
  "updatedAt": "2018-10-05T08:13:47.845Z"
}