{
  "contractName": "Token",
  "abi": [
    {
      "constant": true,
      "inputs": [
        {
          "name": "_interfaceId",
          "type": "bytes4"
        }
      ],
      "name": "supportsInterface",
      "outputs": [
        {
          "name": "",
          "type": "bool"
        }
      ],
      "payable": false,
      "stateMutability": "view",
      "type": "function"
    },
    {
      "constant": true,
      "inputs": [],
      "name": "name",
      "outputs": [
        {
          "name": "",
          "type": "string"
        }
      ],
      "payable": false,
      "stateMutability": "view",
      "type": "function"
    },
    {
      "constant": true,
      "inputs": [],
      "name": "InterfaceId_Token",
      "outputs": [
        {
          "name": "",
          "type": "bytes4"
        }
      ],
      "payable": false,
      "stateMutability": "view",
      "type": "function"
    },
    {
      "constant": true,
      "inputs": [],
      "name": "activated",
      "outputs": [
        {
          "name": "",
          "type": "bool"
        }
      ],
      "payable": false,
      "stateMutability": "view",
      "type": "function"
    },
    {
      "constant": true,
      "inputs": [],
      "name": "InterfaceId_ERC165",
      "outputs": [
        {
          "name": "",
          "type": "bytes4"
        }
      ],
      "payable": false,
      "stateMutability": "view",
      "type": "function"
    },
    {
      "constant": true,
      "inputs": [],
      "name": "template",
      "outputs": [
        {
          "name": "",
          "type": "address"
        }
      ],
      "payable": false,
      "stateMutability": "view",
      "type": "function"
    },
    {
      "constant": false,
      "inputs": [],
      "name": "renounceOwnership",
      "outputs": [],
      "payable": false,
      "stateMutability": "nonpayable",
      "type": "function"
    },
    {
      "constant": true,
      "inputs": [],
      "name": "owner",
      "outputs": [
        {
          "name": "",
          "type": "address"
        }
      ],
      "payable": false,
      "stateMutability": "view",
      "type": "function"
    },
    {
      "constant": true,
      "inputs": [],
      "name": "symbol",
      "outputs": [
        {
          "name": "",
          "type": "string"
        }
      ],
      "payable": false,
      "stateMutability": "view",
      "type": "function"
    },
    {
      "constant": false,
      "inputs": [
        {
          "name": "_newOwner",
          "type": "address"
        }
      ],
      "name": "transferOwnership",
      "outputs": [],
      "payable": false,
      "stateMutability": "nonpayable",
      "type": "function"
    },
    {
      "constant": true,
      "inputs": [],
      "name": "InterfaceId_Contract",
      "outputs": [
        {
          "name": "",
          "type": "bytes4"
        }
      ],
      "payable": false,
      "stateMutability": "view",
      "type": "function"
    },
    {
      "inputs": [
        {
          "name": "_owner",
          "type": "address"
        },
        {
          "name": "_name",
          "type": "string"
        },
        {
          "name": "_symbol",
          "type": "string"
        }
      ],
      "payable": false,
      "stateMutability": "nonpayable",
      "type": "constructor"
    },
    {
      "anonymous": false,
      "inputs": [
        {
          "indexed": true,
          "name": "previousOwner",
          "type": "address"
        }
      ],
      "name": "OwnershipRenounced",
      "type": "event"
    },
    {
      "anonymous": false,
      "inputs": [
        {
          "indexed": true,
          "name": "previousOwner",
          "type": "address"
        },
        {
          "indexed": true,
          "name": "newOwner",
          "type": "address"
        }
      ],
      "name": "OwnershipTransferred",
      "type": "event"
    },
    {
      "constant": false,
      "inputs": [],
      "name": "activate",
      "outputs": [
        {
          "name": "",
          "type": "bool"
        }
      ],
      "payable": false,
      "stateMutability": "nonpayable",
      "type": "function"
    }
  ],
  "bytecode": "0x608060405234801561001057600080fd5b50604051610874380380610874833981016040908152815160208301519183015160008054600160a060020a03191633179055909291820191018261007d7f01ffc9a70000000000000000000000000000000000000000000000000000000064010000000061013b810204565b6002805433600160a060020a03199182161790915560008054909116600160a060020a0383161790556100d87f6125ede50000000000000000000000000000000000000000000000000000000064010000000061013b810204565b5081516100ec9060039060208501906101aa565b5080516101009060049060208401906101aa565b506101337ffd155c670000000000000000000000000000000000000000000000000000000064010000000061013b810204565b505050610245565b7fffffffff00000000000000000000000000000000000000000000000000000000808216141561016a57600080fd5b7fffffffff00000000000000000000000000000000000000000000000000000000166000908152600160208190526040909120805460ff19169091179055565b828054600181600116156101000203166002900490600052602060002090601f016020900481019282601f106101eb57805160ff1916838001178555610218565b82800160010185558215610218579182015b828111156102185782518255916020019190600101906101fd565b50610224929150610228565b5090565b61024291905b80821115610224576000815560010161022e565b90565b610620806102546000396000f3006080604052600436106100b95763ffffffff7c010000000000000000000000000000000000000000000000000000000060003504166301ffc9a781146100be57806306fdde03146101095780630f15f4c014610193578063172d02bd146101a8578063186601ca146101ef57806319fa8f50146102045780636f2ddd9314610219578063715018a61461024a5780638da5cb5b1461026157806395d89b4114610276578063f2fde38b1461028b578063fbf964eb146102ac575b600080fd5b3480156100ca57600080fd5b506100f57bffffffffffffffffffffffffffffffffffffffffffffffffffffffff19600435166102c1565b604080519115158252519081900360200190f35b34801561011557600080fd5b5061011e6102f5565b6040805160208082528351818301528351919283929083019185019080838360005b83811015610158578181015183820152602001610140565b50505050905090810190601f1680156101855780820380516001836020036101000a031916815260200191505b509250505060405180910390f35b34801561019f57600080fd5b506100f5610383565b3480156101b457600080fd5b506101bd6103a8565b604080517bffffffffffffffffffffffffffffffffffffffffffffffffffffffff199092168252519081900360200190f35b3480156101fb57600080fd5b506100f56103cc565b34801561021057600080fd5b506101bd6103ed565b34801561022557600080fd5b5061022e610411565b60408051600160a060020a039092168252519081900360200190f35b34801561025657600080fd5b5061025f610420565b005b34801561026d57600080fd5b5061022e61048c565b34801561028257600080fd5b5061011e61049b565b34801561029757600080fd5b5061025f600160a060020a03600435166104f6565b3480156102b857600080fd5b506101bd610519565b7bffffffffffffffffffffffffffffffffffffffffffffffffffffffff191660009081526001602052604090205460ff1690565b6003805460408051602060026001851615610100026000190190941693909304601f8101849004840282018401909252818152929183018282801561037b5780601f106103505761010080835404028352916020019161037b565b820191906000526020600020905b81548152906001019060200180831161035e57829003601f168201915b505050505081565b60008054600160a060020a0316331461039b57600080fd5b6103a361053d565b905090565b7ffd155c670000000000000000000000000000000000000000000000000000000081565b60025474010000000000000000000000000000000000000000900460ff1681565b7f01ffc9a70000000000000000000000000000000000000000000000000000000081565b600254600160a060020a031681565b600054600160a060020a0316331461043757600080fd5b60008054604051600160a060020a03909116917ff8df31144d9c2f0f6b59d69b8b98abd5459d07f2742c4df920b25aae33c6482091a26000805473ffffffffffffffffffffffffffffffffffffffff19169055565b600054600160a060020a031681565b6004805460408051602060026001851615610100026000190190941693909304601f8101849004840282018401909252818152929183018282801561037b5780601f106103505761010080835404028352916020019161037b565b600054600160a060020a0316331461050d57600080fd5b61051681610577565b50565b7f6125ede50000000000000000000000000000000000000000000000000000000081565b6002805474ff0000000000000000000000000000000000000000191674010000000000000000000000000000000000000000179055600190565b600160a060020a038116151561058c57600080fd5b60008054604051600160a060020a03808516939216917f8be0079c531659141344cd1fd0a4f28419497f9722a3daafe3b4186f6b6457e091a36000805473ffffffffffffffffffffffffffffffffffffffff1916600160a060020a03929092169190911790555600a165627a7a7230582093e98eefcbe43bcb80208d6b00e1f998a5a583edbd1a641911b5eb58bacf10280029",
  "source": "pragma solidity ^0.4.24;\n\nimport \"../Contract.sol\";\nimport \"../Activatable.sol\";\n\ncontract Token is Contract, Activatable {\n\n    /**\n     * @notice this.owner.selector ^ this.renounceOwnership.selector ^ this.transferOwnership.selector\n        ^ this.template.selector ^ this.activate.selector\n        ^ this.name.selector ^ this.symbol.selector\n     */\n    bytes4 public constant InterfaceId_Token = 0xfd155c67;\n\n    string public name;\n    string public symbol;\n\n    constructor(\n        address _owner,\n        string _name,\n        string _symbol\n    ) public Contract(_owner) {\n        name = _name;\n        symbol = _symbol;\n\n        _registerInterface(InterfaceId_Token);\n    }\n\n    function activate() onlyOwner public returns (bool) {\n        return super.activate();\n    }\n}\n",
  "sourcePath": "/Users/yoonjae/SolidityProjects/tokenboost-solidity/contracts/token/Token.sol",
  "compiler": {
    "name": "solc",
    "version": "0.4.24+commit.e67f0147.Emscripten.clang"
  },
  "schemaVersion": "2.0.1",
  "updatedAt": "2018-10-05T08:13:47.864Z"
}